S01E00006469676974616C5F62616C6C5F6578636572636973652E7372656314
S113000012C02CC02BC02AC029C028C027C026C0BB
S113001025C024C023C022C021C020C01FC01EC0D0
S11300201DC01CC01BC011241FBECFE5D4E0DEBF21
S1130030CDBF10E0A0E6B0E0ECE2F5E002C0059030
S11300400D92AE38B107D9F710E0AEE8B0E001C0C8
S11300501D92A03BB107E1F7C5D066C2D1CF9C0188
S1130060E0E9F0E0DF011D921C92128213821482F7
S113007015821682178280E88093AF002130310503
S113008081F12230310521F480E48093AF0029C04E
S11300902330310521F480E28093AF0022C0243064
S11300A0310521F480E18093AF001BC02530310578
S11300B021F488E08093AF0014C02630310521F488
S11300C084E08093AF000DC02730310521F482E035
S11300D08093AF0006C02830310519F481E0809385
S11300E0AF00FB01E157FF4F8091AF00808308957B
S11300F0282F90E0E2E3F0E080818F7D808322234B
S113010024F480818860808303C08081877F80831A
S11301108081806280839F5F983011F0220FECCF42
S11301200895FF920F931F93F62E02E310E0F80157
S113013090819F7E9083DCDF8F2DDADFF801808150
S1130140806180831F910F91FF9008951F9310E0A9
S11301501F5F812F60E0E5DF1830D1F71F9108950C
S1130160E1E3F0E080818FEF808384E060E0D9DF19
S11301708AE061E0D6DF8BE067E0D3DF8CE061E00A
S1130180D0DF8FE060E0CDDFE1DF08950F931F93B0
S1130190CF93DF93C0E0D0E004EA10E0F801EC0F65
S11301A0FD1F9E012F5F822F6081BBDF2196C83027
S11301B0D105A1F7DF91CF911F910F910895BC0153
S11301C020E030E044EA50E0DA01A20FB31FFB0163
S11301D0E20FF31F80818C932F5F3F4F283031054E
S11301E099F708952F923F924F925F926F927F9268
S11301F08F929F92AF92BF92CF92DF92FF920F9312
S11302001F93CF93DF93ACDF609162007091630022
S1130210809160009091610022DF8EE690E0CFDF54
S1130220B5DFC0E3D0E001E010E0FF24F3940F2E2B
S1130230FEE6CF2EF0E0DF2EF02D22243324689446
S113024021F80F2EF6E64F2EF0E05F2EF02D0F2E44
S1130250F6E86F2EF0E07F2EF02D0F2EFEE78F2EA6
S1130260F0E09F2EF02D0F2EF6E7AF2EF0E0BF2E1C
S1130270F02D888190E00024880F991F001C880FBE
S1130280991F001C892F902D80279127982F9170FA
S113029080919800981781F0809199008F5F8093E6
S11302A09900843058F090939800992311F0F092BB
S11302B0AC001092990002C01092990088818823A2
S11302C08095982F991F9927991F80919A009817C4
S11302D081F080919B008F5F80939B00843058F065
S11302E090939A00992311F0F092A20010929B002F
S11302F002C010929B00888190E096958795802794
S11303009127982F917080919C00981781F080918B
S11303109D008F5F80939D00843658F090939C00DD
S1130320992311F0F092AD0010929D0002C010923A
S11303309D00888190E0969587959695879580276E
S11303409127982F917080919E00981781F0809149
S11303509F008F5F80939F00843658F090939E0097
S1130360992311F0F092A30010929F0002C0109202
S11303709F0088818027982F91708091A000981702
S113038081F08091A1008F5F8093A100843658F0A2
S11303909093A000992311F0F092AE001092A10066
S11303A002C01092A1008091AC008823C1F080911A
S11303B08E0090918F00009739F4C20100DF1093F2
S11303C08F0000938E0008C0019731F4C601F7DE58
S11303D030928F0020928E00D9DE1092AC00809172
S11303E0A200882349F180916400909165008230D5
S11303F091052CF00197909365008093640080919F
S11304006400909165008130910519F4C601D7DE2E
S113041010C08230910519F4C501D1DE0AC08330C1
S1130420910519F4C401CBDE04C0049711F4C3018F
S1130430C6DEACDE1092A2008091AD00882349F1A3
S11304408091640090916500823091052CF00197B1
S1130450909365008093640080916400909165009E
S11304608130910519F4C601AADE10C082309105CD
S113047019F4C501A4DE0AC08330910519F4C4013E
S11304809EDE04C0049711F4C30199DE7FDE10924E
S1130490AD008091A300882349F18091640090917C
S11304A06500843091052CF4019690936500809347
S11304B0640080916400909165008130910519F485
S11304C0C6017DDE10C08230910519F4C50177DEC6
S11304D00AC08330910519F4C40171DE04C0049785
S11304E011F4C3016CDE52DE1092A3008091AE00C1
S11304F0882309F4BECE80918E0090918F000097DE
S113050039F4C2015CDE10938F0000938E0008C0A2
S1130510019731F4C60153DE30928F0020928E0091
S10F052035DE1092AE00A5CEF894FFCF9B
S113052C04000400010000FF898989C976000001D8
S113053C0055545040000004005554504000001025
S111054C0055545040000040005554504000EB
S903006696
