S01E00006469676974616C5F62616C6C5F6578636572636973652E7372656314
S113000012C02CC02BC02AC029C028C027C026C0BB
S113001025C032CB23C022C021C020C01FC01EC0B7
S11300201DC01CC01BC011241FBECFE5D4E0DEBF21
S1130030CDBF10E0A0E6B0E0EAE9FCE102C0059023
S11300400D92A839B107D9F710E0A8E9B0E001C0D2
S11300501D92A83DB107E1F719D11DCED1CF9C0166
S1130060ADE9B0E0FD011192108212961C92129734
S113007013961C92139714961C92149715961C921F
S1130080159716961C9280E88093C9008FEF809391
S1130090C8002130310549F12230310521F480E4D2
S11300A08093C90022C02330310521F480E280937B
S11300B0C9001BC02430310521F480E18093C900BC
S11300C014C02530310521F488E08093C9000DC0A7
S11300D02630310521F484E08093C90006C027301E
S11300E0310519F482E08093C90080919B009091BE
S11300F09C0023E2893292071CF01092C8003EC093
S11301002FE18134920724F080E88093C80036C040
S11301102BE18935920724F080EC8093C8002EC02F
S113012027E18137920724F080EE8093C80026C02F
S113013023E18938920724F080EF8093C8001EC021
S11301402FE0813A920724F088EF8093C80016C00C
S11301502BE0893B920724F08CEF8093C8000EC0FB
S113016027E0813D920724F08EEF8093C80006C0FB
S1130170895E93401CF08FEF8093C800ADE9B0E036
S1130180FD01E60FF71F31978091C90080838091AC
S1130190C80017968C930895282F90E0E2E3F0E0CE
S11301A080818F7D8083222324F4808188608083F2
S11301B003C08081877F80838081806280839F5F8A
S11301C0983011F0220FECCF0895FF920F931F93F4
S11301D0F62E02E310E0F80190819F7E9083DCDF2D
S11301E08F2DDADFF8018081806180831F910F9168
S11301F0FF9008951F9310E01F5F812F60E0E5DFFB
S11302001830D1F71F910895E1E3F0E0808188630D
S1130210808384E060E0D9DF8AE061E0D6DF8BE0B0
S113022067E0D3DF8CE061E0D0DF8FE060E0CDDF1A
S1130230E1DF08950F931F93CF93DF93C0E0D0E0E5
S113024000EC10E0F801EC0FFD1F9E012F5F822FE0
S11302506081BBDF2196C830D105A1F7DF91CF9132
S11302601F910F910895BC0120E030E040EC50E074
S1130270DA01A20FB31FFB01E20FF31F80818C93FD
S11302802F5F3F4F2830310599F708952F923F9201
S11302904F925F926F927F928F929F92AF92BF9292
S11302A0CF92DF92EF92FF920F931F93DF93CF933E
S11302B0CDB7DEB7A4970FB6F894DEBF0FBECDBF9F
S11302C081E087BB1A8219821C821B821E821D82D6
S11302D018861F821A8619861C861B8680E090E089
S11302E0A0E0B0E08D879E87AF87B88B898B9A8B0F
S11302F0AB8BBC8B8D8B9E8BAF8BB88F898F9A8F7A
S1130300AB8FBC8F8D8F9E8FAF8FB8A389A39AA319
S1130310ABA3BCA3789459D884EF91E020E931E0F1
S1130320F9013197F1F70197D9F76EDF6091620017
S113033070916300809160009091610090DE88E686
S113034090E091DF77DF0F2EF0E3CF2EDD24F02D48
S1130350AA24BB24A3943E010894611C711C0F2E93
S1130360FDE04F2E5524F02D4C0E5D1E0F2EF1E1B5
S11303702F2E3324F02D2C0E3D1E0F2EF0E98F2E40
S1130380F1E09F2EF02DF601808190E00024880F8B
S1130390991F001C880F991F001C892F902D8A25F6
S11303A09B25982F917080919000981789F08091E7
S11303B0A5008F5F8093A500843060F09093900037
S11303C0992319F0F1E0F09398001092A50002C06F
S11303D01092A500F601808188238095982F991F9B
S11303E09927991F80919100981789F08091A60010
S11303F08F5F8093A600843060F0909391009923DE
S113040019F0F1E0F09399001092A60002C0109246
S1130410A600F601808190E096958795969587953C
S11304208A259B25982F917080919200981789F0C6
S11304308091A7008F5F8093A700843660F090932B
S11304409200992319F0F1E0F0939A001092A7001A
S113045002C01092A70080919800882349F18091EE
S1130460660090916700009741F488E690E0FBDE17
S1130470B0926700A092660018C08130910551F4D3
S113048080E790E0F0DE82E090E090936700809354
S113049066000BC0029749F48DE990E0E4DEE3E0E6
S11304A0F0E0F0936700E0936600C4DE10929800D9
S11304B080919900882309F442C08091660090914C
S11304C06700029721F088E690E0CDDE11C08091AC
S11304D06400909165008430910534F40196909302
S11304E065008093640004C0B0926500A09264002B
S11304F080916600909167000197F1F0809164000B
S1130500909165008130910521F480E790E0ABDEA5
S113051013C08230910521F488E790E0A4DE0CC07A
S11305208330910521F480E890E09DDE05C00497B6
S113053019F488E890E097DE7DDE10929900C301FB
S1130540BE016D5F7F4FAE014B5F5F4F9E01295F20
S11305503F4F8E01075F1F4F0F2EFBE0EF2EFF244E
S1130560F02DEC0EFD1E72D5C201B101AE014B5E41
S11305705F4F9E01275E3F4F8E01035E1F4F0F2E7C
S1130580F1E2EF2EFF24F02DEC0EFD1ED9D5809163
S1130590660090916700039709F0F5CEE988FA8820
S11305A00B891C89C801B7012AE939E949E95EEBDD
S11305B096D9882384F4F1E0F8BB8091620090918D
S11305C06300823091050CF453C00197909363004B
S11305D0809362004DC0C801B7012AE939E949E9AD
S11305E05EE39BDA18167CF481E088BB809162009C
S11305F09091630087309105DCF501969093630038
S11306008093620035C0ED84FE840F851889C8018B
S1130610B7012AE939E949E95EEB61D988237CF419
S113062091E098BB809160009091610082309105C7
S1130630FCF00197909361008093600019C0C80199
S1130640B7012AE939E949E95EE367DA18167CF467
S1130650E1E0E8BB809160009091610088309105F1
S11306603CF40196909361008093600001C018BA35
S113067024EC39E0C4010197F1F721503040D1F75F
S113068080919B0090919C0086509F4F90939C007A
S113069080939B0060916200709163008091600080
S11306A090916100DCDC8DE990E0DDDDC3DD6BCE93
S11306B02F923F924F925F926F927F928F929F926E
S11306C0AF92BF92CF92DF92EF92FF920F931F935C
S11306D0DF93CF93CDB7DEB7CC54D0400FB6F894A8
S11306E0DEBF0FBECDBF6DA37EA38FA398A729A79E
S11306F03AA74BA75CA7EDA6FEA60FA718ABA59635
S11307006CAC7DAC8EAC9FACA597A9962CAC3DACE3
S11307104EAC5FACA997C601B50120E030E040E0E3
S113072050E0DDD8882399F4C401B30120E030E01F
S113073040E050E0D4D8882351F4C201B10120E054
S113074030E040E050E0CBD8882309F4DBC1C60197
S1130750B501A6019501E5D97B018C01C401B30162
S1130760A4019301DED99B01AC01C801B70153D8A0
S11307707B018C01C201B101A2019101D2D99B017B
S1130780AC01C801B70147D833DA7B018C01C6013B
S1130790B501A8019701A7D869AB7AAB8BAB9CAB29
S11307A0C401B301A80197019ED86DAB7EAB8FAB9A
S11307B098AFC201B101A801970195D869AF7AAF8A
S11307C08BAF9CAF6091A8007091A9008091AA00A2
S11307D09091AB002091B0003091B1004091B200F3
S11307E05091B300A0909300B0909400C0909500F5
S11307F0D09096006090AC007090AD008090AE00F8
S11308009090AF008ED97B018C01C601B501A40183
S1130810930187D99B01AC01C801B701FBD721968D
S11308206CAF7DAF8EAF9FAF2197609193007091B5
S1130830940080919500909196002091A8003091A9
S1130840A9004091AA005091AB00A090AC00B090D8
S1130850AD00C090AE00D090AF006090B00070903A
S1130860B1008090B2009090B3005BD97B018C0101
S1130870C601B501A401930154D99B01AC01C8017F
S1130880B701C9D71B012C016091930070919400AA
S1130890809195009091960020919300309194005E
S11308A04091950050919600A090B000B090B10096
S11308B0C090B200D090B3006090B0007090B100CE
S11308C08090B2009090B3002CD920E030E040E05A
S11308D05FE3A0D77B018C01C601B501A40193019C
S11308E020D99B01AC01C801B70195D75B016C010C
S11308F06DA97EA98FA998ADA601950112D97B0196
S11309008C0169AD7AAD8BAD9CADA201910109D981
S11309109B01AC01C801B7017DD725966CAF7DAFB3
S11309208EAF9FAF259769AD7AAD8BAD9CAD219607
S11309302CAD3DAD4EAD5FAD2197F3D87B018C015D
S113094069A97AA98BA99CA9A6019501EAD89B015A
S1130950AC01C801B7015ED729966CAF7DAF8EAFED
S11309609FAF299769A97AA98BA99CA9A201910192
S1130970D8D87B018C016DA97EA98FA998AD219649
S11309802CAD3DAD4EAD5FAD2197CBD89B01AC01F5
S1130990C801B7013FD71B012C01E090B400F090CF
S11309A0B5000091B6001091B70025966CAD7DADF1
S11309B08EAD9FAD25972DEC3CEC4CE45EE3B1D8B5
S11309C02AE83BE446E85CE3ACD8A801970123D7C6
S11309D06093B4007093B5008093B6009093B70011
S11309E0E090B800F090B9000091BA001091BB00FB
S11309F029966CAD7DAD8EAD9FAD29972DEC3CEC69
S1130A004CE45EE38ED82AE83BE446E85CE389D80C
S1130A10A801970100D76093B8007093B900809340
S1130A20BA009093BB00E090BC00F090BD00009130
S1130A30BE001091BF00C201B1012DEC3CEC4CE4AE
S1130A405EE36FD82AE83BE446E85CE36AD8A80191
S1130A509701E1D66093BC007093BD008093BE0003
S1130A609093BF002091B4003091B5004091B6003E
S1130A705091B7006DA17EA18FA198A5CCD63B0162
S1130A804C012091B8003091B9004091BA005091C6
S1130A90BB0069A57AA58BA59CA5BDD65B016C019D
S1130AA02091BC003091BD004091BE005091BF0028
S1130AB06DA57EA58FA598A9AED67B018C01C40136
S1130AC0B30125962CAD3DAD4EAD5FAD2597A3D6B4
S1130AD06DA37EA38FA398A7C601B50129962CAD5B
S1130AE03DAD4EAD5FAD299796D669A77AA78BA782
S1130AF09CA7C801B701A20191018DD66DA77EA75D
S1130B008FA798AB6DA17EA18FA198A52AE83BE49D
S1130B1046E05CE306D82D966CAF7DAF8EAF9FAFF9
S1130B202D9769A57AA58BA59CA52AE83BE446E008
S1130B305CE3F7D71B012C016DA57EA58FA598A9B1
S1130B402AE83BE446E05CE3ECD73B014C01E0904F
S1130B509300F09094000091950010919600E9861E
S1130B60FA860B871C878091A8009091A900A09118
S1130B70AA00B091AB008D839E83AF83B887E090C9
S1130B80AC00F090AD000091AE001091AF00E9828E
S1130B90FA820B831C83A090B000B090B100C09087
S1130BA0B200D090B3008091930090919400A091F2
S1130BB09500B091960089A39AA3ABA3BCA36D81C1
S1130BC07E818F81988590582D962CAD3DAD4EAD8C
S1130BD05FAD2D97A6D77B018C0169817A818B81CA
S1130BE09C81A20191019DD79B01AC01C801B70171
S1130BF011D67B018C01C601B501A401930191D7E3
S1130C009B01AC01C801B70105D629A13AA14BA1AA
S1130C105CA101D660939300709394008093950037
S1130C2090939600A090B000B090B100C090B20034
S1130C30D090B300E090A800F090A9000091AA0021
S1130C401091AB00ED8EFE8E0F8F18A369857A8507
S1130C508B859C852D962CAD3DAD4EAD5FAD2D970E
S1130C6060D77B018C0169817A818B819C81A4018D
S1130C70930157D79B01AC01C801B701CCD57B01C7
S1130C808C01C601B501A20191014BD79B01AC01B6
S1130C90C801B701BFD52D8D3E8D4F8D58A1BBD551
S1130CA06093A8007093A9008093AA009093AB006E
S1130CB0A090B000B090B100C090B200D090B3004A
S1130CC08091AC009091AD00A091AE00B091AF00C6
S1130CD0898F9A8FAB8FBC8F69857A858B859C852C
S1130CE0A20191011ED77B018C016D817E818F81D0
S1130CF09885A401930115D79B01AC01C801B701E4
S1130D0089D57B018C01C601B5012D962CAD3DAD75
S1130D104EAD5FAD2D9705D79B01AC01C801B7015E
S1130D207AD5298D3A8D4B8D5C8D75D56093AC0049
S1130D307093AD008093AE009093AF00A090B0008C
S1130D40B090B100C090B200D090B30069857A85AC
S1130D508B859C85A4019301E4D67B018C016D8174
S1130D607E818F819885A2019101DBD69B01AC0124
S1130D70C801B70150D57B018C0169817A818B81CF
S1130D809C812D962CAD3DAD4EAD5FAD2D97C9D652
S1130D909B01AC01C801B7013DD5A60195013BD526
S1130DA06093B0007093B1008093B2009093B3004D
S1130DB060919300709194008091950090919600B9
S1130DC020919300309194004091950050919600A9
S1130DD0A090A800B090A900C090AA00D090AB0049
S1130DE06090A8007090A9008090AA009090AB0039
S1130DF02090AC003090AD004090AE005090AF0019
S1130E00E090AC00F090AD000091AE001091AF0006
S1130E10ED8AFE8A0F8B188FE090B000F090B1003D
S1130E200091B2001091B300E98AFA8A0B8B1C8BF3
S1130E30E090B000F090B1000091B2001091B300C6
S1130E40ED86FE860F87188B6CD67B018C01C6015C
S1130E50B501A401930165D69B01AC01C801B7019A
S1130E60DAD47B018C01C201B1012D893E894F89FD
S1130E70588D57D69B01AC01C801B701CCD47B0176
S1130E808C0169897A898B899C892D853E854F855A
S1130E90588947D69B01AC01C801B701BCD4A8D678
S1130EA07B018C0160919300709194008091950076
S1130EB090919600A801970116D5609393007093C2
S1130EC0940080939500909396006091A80070918F
S1130ED0A9008091AA009091AB00A801970103D5C5
S1130EE06093A8007093A9008093AA009093AB002C
S1130EF06091AC007091AD008091AE009091AF0014
S1130F00A8019701F0D46093AC007093AD00809376
S1130F10AE009093AF006091B0007091B1008091E9
S1130F20B2009091B300A8019701DDD46093B000A2
S1130F307093B1008093B2009093B300C45BDF4F11
S1130F400FB6F894DEBF0FBECDBFCF91DF911F91D6
S1130F500F91FF90EF90DF90CF90BF90AF909F9054
S1130F608F907F906F905F904F903F902F90089557
S1130F70EF92FF920F931F93CF93DF93182F062FB7
S1130F80F42EE52E662379F080ED9DD3812FEDD3E9
S1130F901F2D2F2D3E2DE9018991E7D39E01211BA1
S1130FA02017D0F3D2D3DF91CF911F910F91FF90EF
S1130FB0EF900895DF93CF930F92CDB7DEB7698397
S1130FC061E0AE014F5F5F4FD3DF0F90CF91DF91B0
S1130FD00895DF92EF92FF920F931F93CF93DF93C5
S1130FE0182FD62E042FF52E662311F410E025C0F9
S1130FF080ED69D3812FB9D385E38A95F1F781ED2B
S113100062D3802F9F2D8C01C0E0D0E08D2D90E025
S11310107C010894E108F108CE15DF0521F4E0D342
S1131020F801808303C0C2D3F801808321960F5F47
S11310301F4FCD1588F31D2D88D3812FDF91CF91BC
S11310401F910F91FF90EF90DF9008954F925F9260
S11310506F927F928F929F92AF92BF92CF92DF92C4
S1131060EF92FF920F931F936C015B014A013901C8
S113107028010AEC10E08BE36EE0A801AADFF80176
S113108041912081942F80E030E0822B932BF60154
S113109091838083F80132964081F8013396208150
S11310A0942F80E030E0822B932BF5019183808391
S11310B0F80134964081F80135962081942F80E020
S11310C030E0822B932BF40191838083F8013896CE
S11310D04081F80139962081942F80E030E0822B02
S11310E0932BF30191838083F8013A964081F801B0
S11310F03B962081942F80E030E0822B932BF201E9
S113110091838083F8013C964081035F1F4FF8016F
S11311102081942F80E030E0822B932BF701918380
S113112080831F910F91FF90EF90DF90CF90BF903D
S1131130AF909F908F907F906F905F904F900895A5
S11311402F923F924F925F926F927F928F929F92D3
S1131150AF92BF92CF92DF92EF92FF920F931F93C1
S1131160DF93CF93CDB7DEB72C970FB6F894DEBFDD
S11311700FBECDBF6C015B014A0139012801170183
S11311801A8219821C821B821E821D8218861F826B
S11311901A8619861C861B86CE010196BE016D5FD8
S11311A07F4FAE014B5F5F4F9E01295F3F4F8E0122
S11311B0075F1F4F0F2EFBE0EF2EFF24F02DEC0EE8
S11311C0FD1E44DF69817A81882777FD8095982FF9
S11311D0F4D320E030E040E858E3A3D4F601608380
S11311E07183828393836B817C81882777FD8095CB
S11311F0982FE3D320E030E040E858E392D4F5019F
S113120060837183828393836D817E81882777FDD8
S11312108095982FD2D320E030E040E858E381D481
S1131220F40160837183828393836F817885665D23
S11312307F4F882777FD8095982FBFD323E333E32F
S113124043E851E450D3F301608371838283938331
S113125069857A8569507040882777FD8095982F35
S1131260ACD323E333E343E851E43DD3F201608399
S11312707183828393836B857C85635E7F4F88272C
S113128077FD8095982F99D323E333E343E851E422
S11312902AD3F10160837183828393832C960FB6E2
S11312A0F894DEBF0FBECDBFCF91DF911F910F9198
S11312B0FF90EF90DF90CF90BF90AF909F908F9072
S11312C07F906F905F904F903F902F900895AB0167
S11312D061E07FDE0895FF920F931F93DF93CF9316
S11312E00F92CDB7DEB7F82E062F142FBE016F5F15
S11312F07F4FEDDF112359F081E090E002C0880FA9
S1131300991F0A95E2F72981622F682B0BC081E0AF
S113131090E002C0880F991F0A95E2F78095298111
S1131320682F622369838F2D45DE0F90CF91DF9163
S11313301F910F91FF9008958BE666E040E0CBDFAC
S11313400895EF92FF920F931F93DF93CF930F9221
S1131350CDB7DEB7E82E062F142FF22E442369F101
S11313601982BE016F5F7F4FB2DF882331F1212FD5
S113137030E0402F50E04F5F5F4F421B530B81E042
S113138090E002C0880F991F1A95E2F70197042E86
S113139002C0880F991F0A94E2F72F2D30E002C093
S11313A0220F331F4A95E2F7682F60954981642321
S11313B08223682B69838E2DFDDD0F90CF91DF9101
S11313C01F910F91FF90EF90089579D185E38A954D
S11313D0F1F728EE33E040E951E0CA010197F1F753
S11313E021503040D1F7A8DF80E49CE90197F1F760
S11313F08BE662E043E021E0A4DF8AE162E043E0BF
S113140023E09FDF89E164E0D5DD8BE164E042E025
S113141023E097DF8CE164E042E020E092DF08956E
S1131420FF920F931F93DF93CF930F92CDB7DEB745
S1131430F62E8A01BE016F5F7F4F49DF21E030E065
S113144002C0220F331FFA94E2F799819223F80124
S113145090830F90CF91DF911F910F91FF9008958A
S11314602F923F924F925F926F927F928F929F92B0
S1131470AF92BF92CF92DF92EF92FF920F931F939E
S1131480DF93CF9300D000D000D0CDB7DEB70F2EBE
S1131490FAECEF2EF0E0FF2EF02D15E38AE360E086
S11314A0A701BEDFF7018081882321F4812F8A956B
S11314B0F1F7F4CF0AEC10E08BE36EE0A80189DDCC
S11314C0F801D190C080F80132969080F8013396EB
S11314D08080F80134967080F80135966080F801B8
S11314E038964081F80139962081F8013A96B08007
S11314F0F8013B96E080F8013C96A080035F1F4F03
S1131500F80100818DB79EB708970FB6F8949EBF77
S11315100FBE8DBFEDB7FEB73196FE83ED83742FFA
S113152060E030E0622B732B665D7F4F882777FD88
S11315308095982F42D223E333E343E851E4D3D197
S113154024E33AEF4EE85CE3ECD269837A838B833D
S11315509C837B2D60E0FF246E297F2969507040B5
S1131560882777FD8095982F28D223E333E343E837
S113157051E4B9D124E33AEF4EE85CE3D2D21B0143
S11315802C017A2D60E010E0602B712B635E7F4F9D
S1131590882777FD8095982F10D223E333E343E81F
S11315A051E4A1D124E33AEF4EE85CE3BAD27B01E3
S11315B08C017D2D60E0DD246C297D29882777FD51
S11315C08095982FFAD120E030E040E858E3A9D282
S11315D05B016C01792D60E09924682979298827B9
S11315E077FD8095982FE9D120E030E040E858E37A
S11315F098D2ED81FE816083718382839383772DFA
S113160060E0772466297729882777FD8095982FCD
S1131610D4D120E030E040E858E383D2ED81FE816C
S1131620648375838683978369817A818B819C81A6
S1131630A20191013DD88DB79EB708960FB6F894D4
S11316409EBF0FBE8DBF26960FB6F894DEBF0FBEA9
S1131650CDBFCF91DF911F910F91FF90EF90DF905D
S1131660CF90BF90AF909F908F907F906F905F903E
S11316704F903F902F9008951F920F920FB60F92A4
S113168011242F933F934F935F936F937F938F9383
S11316909F93AF93BF93EF93FF93E2DEFF91EF919C
S11316A0BF91AF919F918F917F916F915F914F9176
S11316B03F912F910F900FBE0F901F90189511B866
S11316C08CE080B90895982F84EA86BF2FEF30E02C
S11316D040E050E0E6E5F0E08081882334F02150DA
S11316E0310941095109C0F705C0211531054105EA
S11316F0510549F181B1887F883011F0803119F5A5
S113170093B984E886BF2FEF30E040E050E0E6E58F
S1131710F0E08081882334F02150310941095109D6
S1131720C0F705C0211531054105510561F081B1AE
S1131730982F987F983111F480E0089580E09034D8
S113174019F081E0089581E0089584E986BF20E0DE
S113175030E0E6E5F0E0808184FF06C02F5F3F4F74
S113176081E020303807B9F7089583B984E886BF4B
S11317702FEF30E040E050E0E6E5F0E080818823A0
S113178034F02150310941095109C0F707C021152E
S113179031054105510511F491E006C081B190E095
S11317A0887F883209F091E0892F089584EC86BF00
S11317B02FEF30E040E050E0E6E5F0E08081882360
S11317C034F02150310941095109C0F707C02115EE
S11317D031054105510511F480E0089583B1089560
S11317E084E886BF2FEF30E040E050E0E6E5F0E02B
S11317F08081882334F02150310941095109C0F70F
S113180007C0211531054105510511F480E0089503
S113181083B108955058BB27AA270ED044C135D1AF
S113182030F03AD120F031F49F3F11F41EF42AC174
S11318300EF4E095E7FB20C1E92F46D180F3BA17F7
S1131840620773078407950718F071F49EF55EC16B
S11318500EF4E0950B2EBA2FA02D0B01B9019001C7
S11318600C01CA01A0011124FF27591B99F0593F0B
S113187050F4503E68F11A16F040A22F232F342F53
S11318804427585FF3CF469537952795A795F040A1
S11318905395C9F77EF41F16BA0B620B730B840BB6
S11318A0BAF09150A1F0FF0FBB1F661F771F881F6E
S11318B0C2F70EC0BA0F621F731F841F48F48795C6
S11318C077956795B795F7959E3F08F0B3CF9395B5
S11318D0880F08F09927EE0F979587950895A8D05B
S11318E008F481E008950CD0DEC0D6D040F0CDD00D
S11318F030F021F45F3F19F0BFC0511108C1C2C0DC
S1131900E3D098F39923C9F35523B1F3951B550BF1
S1131910BB27AA2762177307840738F09F5F5F4FBE
S1131920220F331F441FAA1FA9F333D00E2E3AF0FF
S1131930E0E830D091505040E695001CCAF729D019
S1131940FE2F27D0660F771F881FBB1F2617370768
S11319504807AB07B0E809F0BB0B802DBF01FF2798
S113196093585F4F2AF09E3F510568F085C0CFC061
S11319705F3FECF3983EDCF3869577956795B795D2
S1131980F7959F5FC9F7880F911D9695879597F9ED
S11319900895E1E0660F771F881FBB1F6217730766
S11319A08407BA0720F0621B730B840BBA0BEE1F7B
S11319B088F7E0950895E89409C097FB3EF4909564
S11319C08095709561957F4F8F4F9F4F9923A9F014
S11319D0F92F96E9BB279395F695879577956795A3
S11319E0B795F111F8CFFAF4BB0F11F460FF1BC0E7
S11319F06F5F7F4F8F4F9F4F16C0882311F096E97A
S1131A0011C0772321F09EE8872F762F05C0662327
S1131A1071F096E8862F70E060E02AF09A95660FE0
S1131A20771F881FDAF7880F9695879597F9089599
S1131A30990F0008550FAA0BE0E8FEEF16161706DB
S1131A40E807F907C0F012161306E407F50798F043
S1131A50621B730B840B950B39F40A2661F0232B5C
S1131A60242B252B21F408950A2609F4A140A695D8
S1131A708FEF811D811D089597F99F6780E870E0BD
S1131A8060E008959FEF80EC089500240A941616F0
S1131A90170618060906089500240A941216130658
S1131AA0140605060895092E0394000C11F48823E6
S1131AB052F0BB0F40F4BF2B11F460FF04C06F5F02
S1131AC07F4F8F4F9F4F089557FD9058440F551FD8
S1131AD059F05F3F71F04795880F97FB991F61F0AC
S1131AE09F3F79F087950895121613061406551F23
S1131AF0F2CF4695F1DF08C0161617061806991F8F
S1131B00F1CF86957105610508940895E894BB2783
S1131B1066277727CB0197F908958ADF08F48FEFBA
S1131B2008950BD0C0CFB1DF28F0B6DF18F09523AD
S1131B3009F0A2CFA7CF1124EACFC6DFA0F3959F67
S1131B40D1F3950F50E0551F629FF001729FBB27A0
S1131B50F00DB11D639FAA27F00DB11DAA1F649F4C
S1131B606627B00DA11D661F829F2227B00DA11DFF
S1131B70621F739FB00DA11D621F839FA00D611D85
S1131B80221F749F3327A00D611D231F849F600DA6
S1131B90211D822F762F6A2F11249F5750408AF0DF
S1131BA0E1F088234AF0EE0FFF1FBB1F661F771F6B
S1131BB0881F91505040A9F79E3F510570F05CCFAB
S1131BC0A6CF5F3FECF3983EDCF386957795679557
S1131BD0B795F795E7959F5FC1F7FE2B880F911D89
S1131BE09695879597F9089511F40EF44BCF3EC05E
S1131BF073DFD0F39923D9F3CEF39F57550B87FFA7
S1131C0043D00024A0E640EA900180585695979569
S1131C1028F4805C660F771F881F20F0261737078B
S1131C20480730F4621B730B840B202931294A2B9B
S1131C30A69517940794202531254A2758F7660F4F
S1131C40771F881F20F026173707480730F4620BE8
S1131C50730B840B200D311D411DA09581F7B90133
S1131C60842F9158880F9695879508959F3F31F05A
S1131C70915020F4879577956795B795880F911DB6
S1131C809695879597F9089591505040660F771F60
S10D1C90881FD2F70895F894FFCFDF
S1131C9A040004000100010000FF898989C9760053
S1131CAA00010055545040000004005554504000AF
S1131CBA0010005554504000004000555450400054
S10B1CCA0101010000803F004C
S903006894
