S01E00006469676974616C5F62616C6C5F6578636572636973652E7372656314
S113000012C02CC02BC02AC029C028C027C026C0BB
S113001025C082CC23C022C021C020C01FC01EC066
S11300201DC01CC01BC011241FBECFE5D4E0DEBF21
S1130030CDBF10E0A0E6B0E0E0EBFFE102C0059028
S11300400D92AE3AB107D9F710E0AEEAB0E001C0C4
S11300501D92AB3FB107E1F76DD1A8CFD1CF80910D
S1130060B0009091B10026E48135920734F0E8E3C2
S1130070F0E080818160808308952EE381389207C7
S11300807CF0E8E3F0E080818E7F808380818D7F47
S1130090808380818B7F80838081886080830895C2
S11300A026E3813B920734F0E8E3F0E0808181604D
S11300B0808308952EE2813E92074CF0E8E3F0E05D
S11300C080818E7F8083808182608083089527E28F
S11300D08131920734F0E8E3F0E08081816080832D
S11300E008952FE18134920764F0E8E3F0E0808121
S11300F08E7F808380818D7F8083808184608083F4
S1130100089527E18137920734F0E8E3F0E0808135
S11301108160808308952FE0813A92074CF0E8E3F0
S1130120F0E080818E7F8083808182608083089567
S1130130815D97402CF0E8E3F0E08081816080836A
S11301400895282F90E0E2E3F0E080818F7D8083A2
S1130150222324F480818860808303C08081877F88
S113016080838081806280839F5F983011F0220FAA
S1130170ECCF0895FF920F931F93F62E02E310E045
S1130180F80190819F7E9083DCDF8F2DDADFF80108
S11301908081806180831F910F91FF9008951F9348
S11301A010E01F5F812F60E0E5DF1830D1F71F9169
S11301B00895E1E3F0E0808188638083E7E3F0E081
S11301C080818F608083E8E3F0E080818E7F80838C
S11301D080818D7F808380818B7F80838081877FF6
S11301E0808384E060E0C6DF8AE061E0C3DF8BE007
S11301F067E0C0DF8CE061E0BDDF8FE060E0BADF84
S1130200CEDF08950F931F93CF93DF93C0E0D0E028
S113021004EE10E0F801EC0FFD1F9E012F5F822F0A
S11302206081A8DF2196C830D105A1F7DF91CF9175
S11302301F910F910895BC0120E030E044EE50E09E
S1130240DA01A20FB31FFB01E20FF31F80818C932D
S11302502F5F3F4F2830310599F70895FA0140E0A8
S113026050E0E60FF71F319728E030E0281B390BE8
S113027081E090E002C0880F991F2A95E2F720815F
S1130280282311F041E050E0842F952F08950F9317
S11302901F93CF93DF93EC018B0182EB90E06AEB29
S11302A070E048E050E073DE80E88093EC00C130F9
S11302B0D10579F1C230D10521F480E48093EC00BA
S11302C028C0C330D10521F480E28093EC0021C022
S11302D0C430D10521F480E18093EC001AC0C5300C
S11302E0D10521F488E08093EC0013C0C630D10519
S11302F021F484E08093EC000CC0C730D10521F4D4
S113030082E08093EC0005C0289719F481E0809383
S1130310EC00F8013197DF01AE54BF4FE654FF4FB4
S113032080819091EC00892B8C93DF91CF911F9168
S11303300F9108952F923F924F925F926F927F9206
S11303408F929F92AF92BF92CF92DF92EF92FF92E1
S11303500F931F93DF93CF93CDB7DEB7A4970FB658
S1130360F894DEBF0FBECDBF81E087BB1A8219822D
S11303701C821B821E821D8218861F821A86198681
S11303801C861B8680E090E0A0E0B0E08D879E870D
S1130390AF87B88B898B9A8BAB8BBC8B8D8B9E8BE9
S11303A0AF8BB88F898F9A8FAB8FBC8F8D8F9E8FB9
S11303B0AF8FB8A389A39AA3ABA3BCA3E8E3F0E0EF
S11303C08081826080838081846080838081886072
S11303D08083808181608083789447D984EF91E021
S11303E020E931E0F9013197F1F70197D9F7E1DE1E
S11303F088E690E020DF06DF0F2EFAEF8F2E992497
S1130400F02D0F2EF9E16F2E7724F02D6C0E7D1E4A
S11304100F2EFDE14F2E5524F02D4C0E5D1E0F2E98
S1130420F1E22F2E3324F02D2C0E3D1E80B3829545
S11304308695869583708095982F91708091A800F9
S1130440981789F08091CA008F5F8093CA00843026
S113045060F09093A800992319F081E08093AE0096
S11304601092CA0002C01092CA0080B388238095FB
S1130470982F991F9927991F8091A900981789F09F
S11304808091CB008F5F8093CB00843060F0909399
S1130490A900992319F081E08093AF001092CB005A
S11304A002C01092CB008091AE008823C1F18091EC
S11304B0660090916700009751F488E690E0BBDEF7
S11304C081E090E0909367008093660025C08130BE
S11304D0910551F480E790E0AEDE82E090E09093E5
S11304E067008093660018C08230910551F482EB56
S11304F090E0A1DE83E090E0909367008093660033
S11305000BC0049749F480E790E095DE82E090E028
S1130510909367008093660075DE1092AE00809120
S1130520AF00882309F444C080916600909167006D
S1130530029721F088E690E07EDE13C0809164008B
S1130540909165008430910534F401969093650090
S11305508093640006C081E090E0909365008093EE
S1130560640080916600909167000197F1F080919A
S11305706400909165008130910521F480E790E05A
S11305805ADE13C08230910521F488E790E053DEEF
S11305900CC08330910521F480E890E04CDE05C066
S11305A0049719F488E890E046DE2CDE1092AF0040
S11305B0CE010196BE016D5F7F4FAE014B5F5F4F71
S11305C09E01295F3F4F8E01075F1F4F0F2EFBE0F7
S11305D0EF2EFF24F02DEC0EFD1E88D6CE010D96D5
S11305E0BE016F5E7F4FAE014B5E5F4F9301820190
S11305F07101F6D68091660090916700039709F027
S113060015CF8091640090916500019739F48AEBCD
S113061090E062EC70E048E050E0B9DC8091640066
S113062090916500029739F48AEB90E060E970E0FC
S113063048E050E0ACDC8091640090916500039741
S113064039F48AEB90E068E970E048E050E09FDC20
S11306508091640090916500049739F48AEB90E0EE
S113066060EA70E048E050E092DCE988FA880B899F
S11306701C89C801B7012DEC3CEC4CEC5DEB7FDA36
S113068088237CF5C0906200D090630056010894E2
S1130690A108B1088091600090916100B5014AEB16
S11306A050E0DCDD892BE9F4C801B7012AE939E916
S11306B049E95EEB64DA882334F00F2EFAEF8F2ECB
S11306C09924F02D05C00F2EF6E98F2E9924F02DD4
S11306D082E0C816D104E4F1B0926300A0926200F3
S11306E037C0C801B7012DEC3CEC4CEC5DE391DB69
S11306F0181674F5C0906200D090630056010894F7
S1130700A11CB11C8091600090916100B5014AEB7D
S113071050E0A4DD892BE1F4C801B7012AE939E9E5
S113072049E95EE376DB181634F00F2EFAEF8F2ECC
S11307309924F02D05C00F2EF4E68F2E9924F02D68
S113074088E0C816D10424F4B0926300A092620039
S1130750ED84FE840F851889C801B7012DEC3CECAB
S11307604CEC5DEB0CDA88237CF5C0906000D090F3
S1130770610056010894A108B1086091620070916B
S11307806300C5014AEB50E069DD892BE9F4C80137
S1130790B7012AE939E949E95EEBF1D9882334F054
S11307A00F2EFAEF8F2E9924F02D05C00F2EF4E6AC
S11307B08F2E9924F02D82E0C816D104E4F1B09272
S11307C06100A092600037C0C801B7012DEC3CEC79
S11307D04CEC5DE31EDB181674F5C0906000D090FD
S11307E0610056010894A11CB11C609162007091D3
S11307F06300C5014AEB50E031DD892BE1F4C80107
S1130800B7012AE939E949E95EE303DB181634F054
S11308100F2EFAEF8F2E9924F02D05C00F2EF4E63B
S11308208F2E9924F02D88E0C816D10424F4B092B8
S11308306100A0926000B401882777FD8095982F0D
S113084038DA5B016C0120E030E04AE755E4E5DA90
S11308507B018C0120E030E040E85FE390D98823FD
S11308601CF461E070E01EC0C801B70120E03FEF56
S11308704FE757E4CEDA181694F4C601B50120E028
S113088030E040E251E4C9DAE6D9CB01672B69F0E4
S1130890E0E9F1E03197F1F70197D1F706C0C8011B
S11308A0B701D9D9CB010197F1F78091B0009091AC
S11308B0B100880D991D9093B1008093B0006091B0
S11308C06200709163008091600090916100DFDCB0
S11308D082EB90E0B0DC96DCC2DB8091600090910A
S11308E06100019709F0A2CD8091620090916300AC
S11308F0089709F09BCD84E090E090936700809383
S1130900660088E690E097DC7DDC88E090E09093D8
S113091061008093600081E090E090936300809395
S113092062001092B1001092B00090936500809321
S11309306400E8E3F0E080818E7F808380818D7F96
S1130940808380818B7F80838081877F80836ECD4D
S11309502F923F924F925F926F927F928F929F92CB
S1130960AF92BF92CF92DF92EF92FF920F931F93B9
S1130970DF93CF93CDB7DEB7CC54D0400FB6F89405
S1130980DEBF0FBECDBF6DA37EA38FA398A729A7FB
S11309903AA74BA75CA7EDA6FEA60FA718ABA59692
S11309A06CAC7DAC8EAC9FACA597A9962CAC3DAC41
S11309B04EAC5FACA997C601B50120E030E040E041
S11309C050E0DDD8882399F4C401B30120E030E07D
S11309D040E050E0D4D8882351F4C201B10120E0B2
S11309E030E040E050E0CBD8882309F4DBC1C601F5
S11309F0B501A601950111DA7B018C01C401B30193
S1130A00A40193010ADA9B01AC01C801B70153D8D0
S1130A107B018C01C201B101A2019101FED99B01AC
S1130A20AC01C801B70147D85FDA7B018C01C6016C
S1130A30B501A8019701A7D869AB7AAB8BAB9CAB86
S1130A40C401B301A80197019ED86DAB7EAB8FABF7
S1130A5098AFC201B101A801970195D869AF7AAFE7
S1130A608BAF9CAF6091CC007091CD008091CE0093
S1130A709091CF002091D4003091D5004091D600C0
S1130A805091D700A090AA00B090AB00C090AC00E9
S1130A90D090AD006090D0007090D1008090D200D2
S1130AA09090D300BAD97B018C01C601B501A40191
S1130AB09301B3D99B01AC01C801B701FBD72196BF
S1130AC06CAF7DAF8EAF9FAF21976091AA007091FC
S1130AD0AB008091AC009091AD002091CC0030919E
S1130AE0CD004091CE005091CF00A090D000B090A6
S1130AF0D100C090D200D090D3006090D400709008
S1130B00D5008090D6009090D70087D97B018C01C6
S1130B10C601B501A401930180D99B01AC01C801B0
S1130B20B701C9D71B012C016091AA007091AB00D9
S1130B308091AC009091AD002091AA003091AB005F
S1130B404091AC005091AD00A090D400B090D5007D
S1130B50C090D600D090D7006090D4007090D5009B
S1130B608090D6009090D70058D920E030E040E043
S1130B705FE3A0D77B018C01C601B501A4019301F9
S1130B804CD99B01AC01C801B70195D75B016C013D
S1130B906DA97EA98FA998ADA60195013ED97B01C7
S1130BA08C0169AD7AAD8BAD9CADA201910135D9B3
S1130BB09B01AC01C801B7017DD725966CAF7DAF11
S1130BC08EAF9FAF259769AD7AAD8BAD9CAD219665
S1130BD02CAD3DAD4EAD5FAD21971FD97B018C018E
S1130BE069A97AA98BA99CA9A601950116D99B018B
S1130BF0AC01C801B7015ED729966CAF7DAF8EAF4B
S1130C009FAF299769A97AA98BA99CA9A2019101EF
S1130C1004D97B018C016DA97EA98FA998AD219679
S1130C202CAD3DAD4EAD5FAD2197F7D89B01AC0126
S1130C30C801B7013FD71B012C01E090D800F09008
S1130C40D9000091DA001091DB0025966CAD7DADE2
S1130C508EAD9FAD25972DEC3CEC4CE45EE3DDD8E6
S1130C602AE83BE446E85CE3D8D8A801970123D7F7
S1130C706093D8007093D9008093DA009093DB00DE
S1130C80E090DC00F090DD000091DE001091DF00C8
S1130C9029966CAD7DAD8EAD9FAD29972DEC3CECC6
S1130CA04CE45EE3BAD82AE83BE446E85CE3B5D812
S1130CB0A801970100D76093DC007093DD00809356
S1130CC0DE009093DF00E090E000F090E1000091FE
S1130CD0E2001091E300C201B1012DEC3CEC4CE4C4
S1130CE05EE39BD82AE83BE446E85CE396D8A80197
S1130CF09701E1D66093E0007093E1008093E200F5
S1130D009093E3002091D8003091D9004091DA000B
S1130D105091DB006DA17EA18FA198A5CCD63B019B
S1130D204C012091DC003091DD004091DE005091B7
S1130D30DF0069A57AA58BA59CA5BDD65B016C01D6
S1130D402091E0003091E1004091E2005091E300F5
S1130D506DA57EA58FA598A9AED67B018C01C40193
S1130D60B30125962CAD3DAD4EAD5FAD2597A3D611
S1130D706DA37EA38FA398A7C601B50129962CADB8
S1130D803DAD4EAD5FAD299796D669A77AA78BA7DF
S1130D909CA7C801B701A20191018DD66DA77EA7BA
S1130DA08FA798AB6DA17EA18FA198A52AE83BE4FB
S1130DB046E05CE332D82D966CAF7DAF8EAF9FAF2B
S1130DC02D9769A57AA58BA59CA52AE83BE446E066
S1130DD05CE323D81B012C016DA57EA58FA598A9E2
S1130DE02AE83BE446E05CE318D83B014C01E09080
S1130DF0AA00F090AB000091AC001091AD00E98620
S1130E00FA860B871C878091CC009091CD00A0912D
S1130E10CE00B091CF008D839E83AF83B887E090DE
S1130E20D000F090D1000091D2001091D300E9825B
S1130E30FA820B831C83A090D400B090D500C0909C
S1130E40D600D090D7008091AA009091AB00A091D9
S1130E50AC00B091AD0089A39AA3ABA3BCA36D81F0
S1130E607E818F81988590582D962CAD3DAD4EADE9
S1130E705FAD2D97D2D77B018C0169817A818B81FB
S1130E809C81A2019101C9D79B01AC01C801B701A2
S1130E9011D67B018C01C601B501A4019301BDD714
S1130EA09B01AC01C801B70105D629A13AA14BA108
S1130EB05CA101D66093AA007093AB008093AC0050
S1130EC09093AD00A090D400B090D500C090D6000F
S1130ED0D090D700E090CC00F090CD000091CE00EF
S1130EE01091CF00ED8EFE8E0F8F18A369857A8541
S1130EF08B859C852D962CAD3DAD4EAD5FAD2D976C
S1130F008CD77B018C0169817A818B819C81A401BE
S1130F10930183D79B01AC01C801B701CCD57B01F8
S1130F208C01C601B501A201910177D79B01AC01E7
S1130F30C801B701BFD52D8D3E8D4F8D58A1BBD5AE
S1130F406093CC007093CD008093CE009093CF003B
S1130F50A090D400B090D500C090D600D090D70017
S1130F608091D0009091D100A091D200B091D30093
S1130F70898F9A8FAB8FBC8F69857A858B859C8589
S1130F80A20191014AD77B018C016D817E818F8101
S1130F909885A401930141D79B01AC01C801B70115
S1130FA089D57B018C01C601B5012D962CAD3DADD3
S1130FB04EAD5FAD2D9731D79B01AC01C801B70190
S1130FC07AD5298D3A8D4B8D5C8D75D56093D00083
S1130FD07093D1008093D2009093D300A090D4005A
S1130FE0B090D500C090D600D090D70069857A859E
S1130FF08B859C85A401930110D77B018C016D81A5
S11310007E818F819885A201910107D79B01AC0154
S1131010C801B70150D57B018C0169817A818B812C
S11310209C812D962CAD3DAD4EAD5FAD2D97F5D683
S11310309B01AC01C801B7013DD5A60195013BD583
S11310406093D4007093D5008093D6009093D7001A
S11310506091AA007091AB008091AC009091AD00BA
S11310602091AA003091AB004091AC005091AD00AA
S1131070A090CC00B090CD00C090CE00D090CF0016
S11310806090CC007090CD008090CE009090CF0006
S11310902090D0003090D1004090D2005090D300E6
S11310A0E090D000F090D1000091D2001091D300D4
S11310B0ED8AFE8A0F8B188FE090D400F090D50053
S11310C00091D6001091D700E98AFA8A0B8B1C8B09
S11310D0E090D400F090D5000091D6001091D70094
S11310E0ED86FE860F87188B98D67B018C01C6018E
S11310F0B501A401930191D69B01AC01C801B701CC
S1131100DAD47B018C01C201B1012D893E894F895A
S1131110588D83D69B01AC01C801B701CCD47B01A7
S11311208C0169897A898B899C892D853E854F85B7
S1131130588973D69B01AC01C801B701BCD4D4D67D
S11311407B018C016091AA007091AB008091AC008E
S11311509091AD00A801970116D56093AA007093F1
S1131160AB008093AC009093AD006091CC00709183
S1131170CD008091CE009091CF00A801970103D5B6
S11311806093CC007093CD008093CE009093CF00F9
S11311906091D0007091D1008091D2009091D300E1
S11311A0A8019701F0D46093D0007093D10080938C
S11311B0D2009093D3006091D4007091D5008091B7
S11311C0D6009091D700A8019701DDD46093D40094
S11311D07093D5008093D6009093D700C45BDF4F03
S11311E00FB6F894DEBF0FBECDBFCF91DF911F9134
S11311F00F91FF90EF90DF90CF90BF90AF909F90B2
S11312008F907F906F905F904F903F902F900895B4
S1131210EF92FF920F931F93CF93DF93182F062F14
S1131220F42EE52E662379F080ED9DD3812FEDD346
S11312301F2D2F2D3E2DE9018991E7D39E01211BFE
S11312402017D0F3D2D3DF91CF911F910F91FF904C
S1131250EF900895DF93CF930F92CDB7DEB76983F4
S113126061E0AE014F5F5F4FD3DF0F90CF91DF910D
S11312700895DF92EF92FF920F931F93CF93DF9322
S1131280182FD62E042FF52E662311F410E025C056
S113129080ED69D3812FB9D385E38A95F1F781ED88
S11312A062D3802F9F2D8C01C0E0D0E08D2D90E083
S11312B07C010894E108F108CE15DF0521F4E0D3A0
S11312C0F801808303C0C2D3F801808321960F5FA5
S11312D01F4FCD1588F31D2D88D3812FDF91CF911A
S11312E01F910F91FF90EF90DF9008954F925F92BE
S11312F06F927F928F929F92AF92BF92CF92DF9222
S1131300EF92FF920F931F936C015B014A01390125
S113131028010DEE10E08BE36EE0A801AADFF801CE
S113132041912081942F80E030E0822B932BF601B1
S113133091838083F80132964081F80133962081AD
S1131340942F80E030E0822B932BF50191838083EE
S1131350F80134964081F80135962081942F80E07D
S113136030E0822B932BF40191838083F80138962B
S11313704081F80139962081942F80E030E0822B5F
S1131380932BF30191838083F8013A964081F8010D
S11313903B962081942F80E030E0822B932BF20146
S11313A091838083F8013C964081035F1F4FF801CD
S11313B02081942F80E030E0822B932BF7019183DE
S11313C080831F910F91FF90EF90DF90CF90BF909B
S11313D0AF909F908F907F906F905F904F90089503
S11313E02F923F924F925F926F927F928F929F9231
S11313F0AF92BF92CF92DF92EF92FF920F931F931F
S1131400DF93CF93CDB7DEB72C970FB6F894DEBF3A
S11314100FBECDBF6C015B014A01390128011701E0
S11314201A8219821C821B821E821D8218861F82C8
S11314301A8619861C861B86CE010196BE016D5F35
S11314407F4FAE014B5F5F4F9E01295F3F4F8E017F
S1131450075F1F4F0F2EFBE0EF2EFF24F02DEC0E45
S1131460FD1E44DF69817A81882777FD8095982F56
S113147020D420E030E040E858E3CFD4F601608384
S11314807183828393836B817C81882777FD809528
S1131490982F0FD420E030E040E858E3BED4F501A3
S11314A060837183828393836D817E81882777FD36
S11314B08095982FFED320E030E040E858E3ADD487
S11314C0F40160837183828393836F817885665D81
S11314D07F4F882777FD8095982FEBD323E333E361
S11314E043E851E450D3F30160837183828393838F
S11314F069857A8569507040882777FD8095982F93
S1131500D8D323E333E343E851E43DD3F2016083CA
S11315107183828393836B857C85635E7F4F882789
S113152077FD8095982FC5D323E333E343E851E453
S11315302AD3F10160837183828393832C960FB63F
S1131540F894DEBF0FBECDBFCF91DF911F910F91F5
S1131550FF90EF90DF90CF90BF90AF909F908F90CF
S11315607F906F905F904F903F902F900895AB01C4
S113157061E07FDE0895FF920F931F93DF93CF9373
S11315800F92CDB7DEB7F82E062F142FBE016F5F72
S11315907F4FEDDF112359F081E090E002C0880F06
S11315A0991F0A95E2F72981622F682B0BC081E00D
S11315B090E002C0880F991F0A95E2F7809529816F
S11315C0682F622369838F2D45DE0F90CF91DF91C1
S11315D01F910F91FF9008958BE666E040E0CBDF0A
S11315E00895EF92FF920F931F93DF93CF930F927F
S11315F0CDB7DEB7E82E062F142FF22E442369F15F
S11316001982BE016F5F7F4FB2DF882331F1212F32
S113161030E0402F50E04F5F5F4F421B530B81E09F
S113162090E002C0880F991F1A95E2F70197042EE3
S113163002C0880F991F0A94E2F72F2D30E002C0F0
S1131640220F331F4A95E2F7682F6095498164237E
S11316508223682B69838E2DFDDD0F90CF91DF915E
S11316601F910F91FF90EF90089579D185E38A95AA
S1131670F1F728EE33E040E951E0CA010197F1F7B0
S113168021503040D1F7A8DF80E49CE90197F1F7BD
S11316908BE662E043E021E0A4DF8AE162E043E01C
S11316A023E09FDF89E164E0D5DD8BE164E042E083
S11316B023E097DF8CE164E042E020E092DF0895CC
S11316C0FF920F931F93DF93CF930F92CDB7DEB7A3
S11316D0F62E8A01BE016F5F7F4F49DF21E030E0C3
S11316E002C0220F331FFA94E2F799819223F80182
S11316F090830F90CF91DF911F910F91FF900895E8
S11317002F923F924F925F926F927F928F929F920D
S1131710AF92BF92CF92DF92EF92FF920F931F93FB
S1131720DF93CF9300D000D000D0CDB7DEB70F2E1B
S1131730FDEEEF2EF0E0FF2EF02D15E38AE360E0DE
S1131740A701BEDFF7018081882321F4812F8A95C8
S1131750F1F7F4CF0DEE10E08BE36EE0A80189DD24
S1131760F801D190C080F80132969080F801339648
S11317708080F80134967080F80135966080F80115
S113178038964081F80139962081F8013A96B08064
S1131790F8013B96E080F8013C96A080035F1F4F60
S11317A0F80100818DB79EB708970FB6F8949EBFD5
S11317B00FBE8DBFEDB7FEB73196FE83ED83742F58
S11317C060E030E0622B732B665D7F4F882777FDE6
S11317D08095982F6ED223E333E343E851E4D3D1C9
S11317E024E33AEF4EE85CE318D369837A838B836E
S11317F09C837B2D60E0FF246E297F296950704013
S1131800882777FD8095982F54D223E333E343E868
S113181051E4B9D124E33AEF4EE85CE3FED21B0174
S11318202C017A2D60E010E0602B712B635E7F4FFA
S1131830882777FD8095982F3CD223E333E343E850
S113184051E4A1D124E33AEF4EE85CE3E6D27B0114
S11318508C017D2D60E0DD246C297D29882777FDAE
S11318608095982F26D220E030E040E858E3D5D286
S11318705B016C01792D60E0992468297929882716
S113188077FD8095982F15D220E030E040E858E3AA
S1131890C4D2ED81FE816083718382839383772D2B
S11318A060E0772466297729882777FD8095982F2B
S11318B000D220E030E040E858E3AFD2ED81FE8171
S11318C0648375838683978369817A818B819C8104
S11318D0A20191013DD88DB79EB708960FB6F89432
S11318E09EBF0FBE8DBF26960FB6F894DEBF0FBE07
S11318F0CDBFCF91DF911F910F91FF90EF90DF90BB
S1131900CF90BF90AF909F908F907F906F905F909B
S11319104F903F902F9008951F920F920FB60F9201
S113192011242F933F934F935F936F937F938F93E0
S11319309F93AF93BF93EF93FF93E2DEFF91EF91F9
S1131940BF91AF919F918F917F916F915F914F91D3
S11319503F912F910F900FBE0F901F90189511B8C3
S11319608CE080B90895982F84EA86BF2FEF30E089
S113197040E050E0E6E5F0E08081882334F0215037
S1131980310941095109C0F705C021153105410547
S1131990510549F181B1887F883011F0803119F502
S11319A093B984E886BF2FEF30E040E050E0E6E5ED
S11319B0F0E08081882334F0215031094109510934
S11319C0C0F705C0211531054105510561F081B10C
S11319D0982F987F983111F480E0089580E0903436
S11319E019F081E0089581E0089584E986BF20E03C
S11319F030E0E6E5F0E0808184FF06C02F5F3F4FD2
S1131A0081E020303807B9F7089583B984E886BFA8
S1131A102FEF30E040E050E0E6E5F0E080818823FD
S1131A2034F02150310941095109C0F707C021158B
S1131A3031054105510511F491E006C081B190E0F2
S1131A40887F883209F091E0892F089584EC86BF5D
S1131A502FEF30E040E050E0E6E5F0E080818823BD
S1131A6034F02150310941095109C0F707C021154B
S1131A7031054105510511F480E0089583B10895BD
S1131A8084E886BF2FEF30E040E050E0E6E5F0E088
S1131A908081882334F02150310941095109C0F76C
S1131AA007C0211531054105510511F480E0089561
S1131AB083B108955058BB27AA270ED070C161D1B5
S1131AC030F066D120F031F49F3F11F41EF456C17A
S1131AD00EF4E095E7FB4CC1E92F72D180F3BA17FD
S1131AE0620773078407950718F071F49EF58AC19D
S1131AF00EF4E0950B2EBA2FA02D0B01B901900125
S1131B000C01CA01A0011124FF27591B99F0593F68
S1131B1050F4503E68F11A16F040A22F232F342FB0
S1131B204427585FF3CF469537952795A795F040FE
S1131B305395C9F77EF41F16BA0B620B730B840B13
S1131B40BAF09150A1F0FF0FBB1F661F771F881FCB
S1131B50C2F70EC0BA0F621F731F841F48F4879523
S1131B6077956795B795F7959E3F08F0B3CF939512
S1131B70880F08F09927EE0F979587950895D4D08C
S1131B8008F481E008950CD00AC102D140F0F9D0E4
S1131B9030F021F45F3F19F0EBC0511134C1EEC0B5
S1131BA00FD198F39923C9F35523B1F3951B550B22
S1131BB0BB27AA2762177307840738F09F5F5F4F1C
S1131BC0220F331F441FAA1FA9F333D00E2E3AF05D
S1131BD0E0E830D091505040E695001CCAF729D077
S1131BE0FE2F27D0660F771F881FBB1F26173707C6
S1131BF04807AB07B0E809F0BB0B802DBF01FF27F6
S1131C0093585F4F2AF09E3F510568F0B1C0FBC066
S1131C105F3FECF3983EDCF3869577956795B7952F
S1131C20F7959F5FC9F7880F911D9695879597F94A
S1131C300895E1E0660F771F881FBB1F62177307C3
S1131C408407BA0720F0621B730B840BBA0BEE1FD8
S1131C5088F7E0950895BCD088F09F5790F0B92F8D
S1131C609927B751A0F0D1F0660F771F881F991FED
S1131C701AF0BA95C9F712C0B13081F0C3D0B1E0FF
S1131C800895C0C0672F782F8827B85F39F0B93F0F
S1131C90CCF3869577956795B395D9F73EF49095EF
S1131CA08095709561957F4F8F4F9F4F0895E8946D
S1131CB009C097FB3EF490958095709561957F4F90
S1131CC08F4F9F4F9923A9F0F92F96E9BB2793953E
S1131CD0F695879577956795B795F111F8CFFAF44E
S1131CE0BB0F11F460FF1BC06F5F7F4F8F4F9F4F7F
S1131CF016C0882311F096E911C0772321F09EE8DD
S1131D00872F762F05C0662371F096E8862F70E042
S1131D1060E02AF09A95660F771F881FDAF7880F1C
S1131D209695879597F90895990F0008550FAA0B72
S1131D30E0E8FEEF16161706E807F907C0F01216DA
S1131D401306E407F50798F0621B730B840B950BDD
S1131D5039F40A2661F0232B242B252B21F4089532
S1131D600A2609F4A140A6958FEF811D811D0895CF
S1131D7097F99F6780E870E060E008959FEF80EC3A
S1131D80089500240A9416161706180609060895DD
S1131D9000240A9412161306140605060895092E43
S1131DA00394000C11F4882352F0BB0F40F4BF2BB2
S1131DB011F460FF04C06F5F7F4F8F4F9F4F0895F2
S1131DC057FD9058440F551F59F05F3F71F04795E8
S1131DD0880F97FB991F61F09F3F79F087950895CD
S1131DE0121613061406551FF2CF4695F1DF08C0EC
S1131DF0161617061806991FF1CF86957105610509
S1131E0008940895E894BB2766277727CB0197F9B0
S1131E1008958ADF08F48FEF08950BD0C0CFB1DFA7
S1131E2028F0B6DF18F0952309F0A2CFA7CF11242C
S1131E30EACFC6DFA0F3959FD1F3950F50E0551F6D
S1131E40629FF001729FBB27F00DB11D639FAA270B
S1131E50F00DB11DAA1F649F6627B00DA11D661F5A
S1131E60829F2227B00DA11D621F739FB00DA11D7B
S1131E70621F839FA00D611D221F749F3327A00D35
S1131E80611D231F849F600D211D822F762F6A2FD1
S1131E9011249F5750408AF0E1F088234AF0EE0F56
S1131EA0FF1FBB1F661F771F881F91505040A9F763
S1131EB09E3F510570F05CCFA6CF5F3FECF3983E98
S1131EC0DCF3869577956795B795F795E7959F5FCA
S1131ED0C1F7FE2B880F911D9695879597F9089564
S1131EE011F40EF44BCF3EC073DFD0F39923D9F332
S1131EF0CEF39F57550B87FF43D00024A0E640EA5A
S1131F00900180585695979528F4805C660F771F4A
S1131F10881F20F026173707480730F4621B730B1D
S1131F20840B202931294A2BA69517940794202540
S1131F3031254A2758F7660F771F881F20F0261788
S1131F403707480730F4620B730B840B200D311DE7
S1131F50411DA09581F7B901842F9158880F96955A
S1131F60879508959F3F31F0915020F48795779598
S1131F706795B795880F911D9695879597F908955C
S1131F8091505040660F771F881FD2F70895FB01C8
S1131F90DC014150504048F001900D920020C9F7F7
S1131FA001C01D9241505040E0F70895F894FFCFCE
S1131FB00800010001000100030C30C0C0300C0314
S1131FC00001005554504000000400555450400096
S1131FD0001000555450400000400055545040003B
S1131FE01010101010101000620ABAA2AEAAAA2093
S1111FF002DC05D4D28A3A4001010000803F91
S9030000FC
